:100000000C94E4000C940C010C940C010C940C0165
:100010000C940C010C940C010C940C010C940C012C
:100020000C940C010C940C010C947A040C94EC04C8
:100030000C940C010C940C010C940C010C940C010C
:100040000C940C010C940C010C940C010C940C01FC
:100050000C940C010C940C010C940C010C941C07D6
:100060000C940C010C940C010C940C010C940C01DC
:100070000C940C010C940C010C940C010C940C01CC
:100080000C940C010C940C010C940C010C940C01BC
:100090000C940C010C940C010C940C010C940C01AC
:1000A0000C940C010C940C010C940C0128032B03F0
:1000B0001A031E0322034C034C034C032F03330388
:1000C00037033D0341034C03470384098609920922
:1000D0009909A509A709AE09B009000000020009A5
:1000E0000F0000030401000C0000000000000000ED
:1000F0000000000000000000080B000202020100E6
:10010000090400000102020000052400100105247A
:1001100001010104240206052406000107058103EC
:1001200010004009040100020A0000000705020255
:100130004000000705830240000004030904120187
:100140000002EF0201404F1B069200010102030171
:10015000537061726B46756E00537061726B4675B9
:100160006E2050726F204D6963726F0000000000B6
:10017000250028002B002E00310000000000240084
:1001800027002A002D0030000404040404030405A1
:100190000202020204030202020206060606060624
:1001A000040402020204040408020110408040100A
:1001B000204080408008020401804020100201108D
:1001C000801020404020660711241FBECFEFDAE0E8
:1001D000DEBFCDBF11E0A0E0B1E0EAEAF8E102C085
:1001E00005900D92A433B107D9F721E0A4E3B1E063
:1001F00001C01D92AD3BB207E1F710E0C4EED0E0C4
:1002000004C02197FE010E94480CC33ED107C9F7E4
:100210000E949F070C94530C0C94000090E0FC018A
:10022000E955FE4F2491FC01E857FE4F8491882345
:1002300099F090E0880F991FFC01E658FE4FA591B8
:10024000B491FC01E459FE4F859194918FB7F894D5
:10025000EC91E22BEC938FBF0895FC018091520149
:10026000811103C08FEF9FEF08959FB7F89482E04C
:100270008093E9002091F20030E01216130614F486
:1002800021E030E02115310559F0289884E680936B
:1002900051018091F10080838091F200882319F050
:1002A0009FBFC90108958BE68093E800F9CF2FB76F
:1002B000F89483E08093E9009091E800892F8072A0
:1002C00095FF04C09091F20080E4891B2FBF089530
:1002D0008091490181110DC082E08093450184E045
:1002E00080934601109248011092470181E080936B
:1002F000490185E491E0089540913F01509140010A
:1003000020913D0130913E0142175307B4F4909182
:10031000E8009570E1F39091E80092FD19C0809398
:10032000F10080913F019091400101968F739927D0
:10033000892B19F48EEF8093E80080913F01909112
:10034000400101969093400180933F0181E0089520
:1003500080E00895CF92DF92EF92FF920F931F9368
:10036000CF93DF931F92CDB7DEB7182F062FE42E61
:10037000862F880F8E5F99830E947C0183E00E9404
:100380007C01F12EC12E9981D92E8C2D8F198017C9
:1003900098F4F601E7FE02C0849101C080810E94BA
:1003A0007C01182F80E00E947C018123FFEFCF1A8F
:1003B000DF0A8111EACF01C081E00F90DF91CF9178
:1003C0001F910F91FF90EF90DF90CF900895DF92F3
:1003D000EF92FF920F931F93CF93DF93D82E8A0152
:1003E0007B01E40EF51EEB01CE15DF0571F0D7FEA3
:1003F00003C0FE01849101C088810E947C01219686
:100400008111F2CF8FEF9FEF01C0C801DF91CF9133
:100410001F910F91FF90EF90DF9008950F931F931E
:10042000CF93DF931F92CDB7DEB782E0898342E49A
:1004300050E068EF70E080E80E94E7010E946801E8
:10044000DC0112960D911C9113970115110569F0AD
:10045000D801ED91FC910280F381E02DBE016F5F28
:100460007F4FC801099597FF07C089810F90DF91E1
:10047000CF911F910F910895F80100851185E5CF67
:10048000615030F02091F100FC0120830196F8CFFB
:10049000289884E6809351010895CF92DF92EF92DD
:1004A000FF920F931F93CF93DF936C017A018B011F
:1004B000C0E0D0E0CE15DF0589F0D8016D918D0147
:1004C000D601ED91FC910190F081E02DC6010995D6
:1004D000892B11F47E0102C02196ECCFC701DF9178
:1004E000CF911F910F91FF90EF90DF90CF900895E3
:1004F000CF93DF931F92CDB7DEB76983DC01ED9117
:10050000FC910280F381E02D41E050E0BE016F5F7D
:100510007F4F09950F90DF91CF91089583E08093ED
:10052000E9008091F200882319F08AE38093E800C3
:1005300008950E94570190E00895CF93DF931F9292
:10054000CDB7DEB7FC018485958597FD05C02FEFFB
:100550003FEF358724870BC0CE0101960E942D0105
:10056000019719F4898190E002C08FEF9FEF0F90FF
:10057000DF91CF9108950F931F93CF93DF931F9235
:10058000CDB7DEB78C01FC018485958597FF0EC041
:10059000CE0101960E942D01019719F4298130E0C6
:1005A00002C02FEF3FEFF80135872487F8018485DB
:1005B00095850F90DF91CF911F910F910895FC01C8
:1005C0008485958597FD0BC09FB7F89482E0809352
:1005D000E9008091F2009FBF90E0019608959FB7D7
:1005E000F89482E08093E9008091F2009FBF90E050
:1005F0000895089580E090E00895362F90E0FC0182
:10060000E652FF4F4491FC01E955FE4F2491FC0155
:10061000E857FE4F8491882309F451C04423E1F147
:1006200050E0FA013197EF30F105B0F5EA5AFF4F8B
:100630000C94480C909180009F7707C090918000A7
:100640009F7D03C090918000977F9093800024C08D
:1006500094B59F7702C094B59F7D94BD1DC09091C5
:1006600090009F7707C0909190009F7D03C090916C
:100670009000977F909390000FC09091C0009F775B
:1006800003C09091C0009F7D9093C00005C09091E1
:10069000C200977F9093C200E82FF0E0EE0FFF1F9B
:1006A000E459FE4FA591B4918FB7F894EC913111B4
:1006B00003C020952E2301C02E2B2C938FBF0895AD
:1006C0003FB7F8948091390190913A01A0913B0194
:1006D000B0913C0126B5A89B05C02F3F19F00196AB
:1006E000A11DB11D3FBFBA2FA92F982F8827820FB8
:1006F000911DA11DB11DBC01CD0142E0660F771F08
:10070000881F991F4A95D1F70895CF92DF92EF92F3
:10071000FF920E9460036B017C010E946003DC0178
:10072000CB018C199D09AE09BF09883E9340A105F4
:10073000B10598F3FF90EF90DF90CF9008958F92DE
:100740009F92AF92BF92CF92DF92EF92FF920F9360
:100750001F93CF93DF936C015B017A0180910B01B2
:10076000882309F456C080915201882309F451C0AE
:100770008091430180FF05C08091E00082608093FA
:10078000E000E70110E00AEF83E0882E9AE3992E5B
:100790002097B1F10E945701811105C00150C9F1A4
:1007A0000E948503F5CF282F30E0C217D3070CF441
:1007B0008C2F4FB7F8948092E9009091E80095FF54
:1007C0001DC0282F30E0C21BD30BF501982F91508C
:1007D00020F081918093F100FACFA20EB31E112375
:1007E00019F09092E80009C08091E80085FD06C0EC
:1007F0009092E80011E0209709F010E04FBFC8CFB9
:100800001111C8CF5D9884E6809344011E141F0423
:1008100044F081E090E0F6019383828380E090E0F1
:1008200001C0C701DF91CF911F910F91FF90EF9011
:10083000DF90CF90BF90AF909F908F900895BC01B4
:10084000009791F0FC0101900020E9F73197AF018A
:10085000481B590BE0915301F09154010280F38140
:10086000E02D83E591E0099480E090E008958F9277
:100870009F92AF92BF920F931F93CF93DF93CDB709
:10088000DEB7A1970FB6F894DEBF0FBECDBF19A299
:10089000423008F44AE08E010F5D1F4F842E912CE8
:1008A000A12CB12CA50194010E94070CE62FB901DF
:1008B000CA0101501109EA3014F4E05D01C0E95C9D
:1008C000D801EC93232B242B252B61F7C8010E9420
:1008D0001F04A1960FB6F894DEBF0FBECDBFDF9107
:1008E000CF911F910F91BF90AF909F908F900895DF
:1008F0000E944E0C1F920F920FB60F9211248F93ED
:100900009F938091E1009091E100937F9093E100AB
:1009100083FF0FC01092E90091E09093EB001092DA
:10092000EC0092E39093ED001092520198E09093C6
:10093000F00082FF20C093E09093E9009091F200D4
:10094000992319F09AE39093E80090914401992338
:1009500039F090914401915090934401992389F189
:1009600090915101992339F09091510191509093B8
:100970005101992341F184FF10C08091E2008E7EE5
:1009800081608093E2008091E1008F7E8093E1009E
:10099000809143018E7E806111C080FF16C08091DE
:1009A000E2008E7E80618093E2008091E1008E7E85
:1009B0008093E100809143018E7E816080934301AA
:1009C00004C05D9ACDCF289AD6CF9F918F910F907A
:1009D0000FBE0F901F9018951F920F920FB60F9297
:1009E0001124CF92DF92EF92FF920F931F932F93D8
:1009F0003F934F935F936F937F938F939F93AF93A7
:100A0000BF93EF93FF93CF93DF93CDB7DEB76C9790
:100A1000DEBFCDBF1092E9008091E80083FFEDC1F9
:100A200068E0CE0145960E94400282EF8093E80084
:100A30008D8987FF05C09091E80090FFFCCF03C02F
:100A40009EEF9093E800982F907609F0C6C09E899B
:100A50002F89188D91110CC0803829F480914201A2
:100A60008093F10002C01092F1001092F10048C191
:100A7000422F50E0512B913051F4811141C141304E
:100A8000510509F03DC1809142018D7F0BC093302B
:100A900061F4811135C14130510509F031C18091B6
:100AA00042018260809342012BC1953041F48091D4
:100AB000E80080FFFCCF20682093E30021C196303E
:100AC00009F05FC0EB8CFC8C1092E90010924001A1
:100AD00010923F01123091F510923E0110923D01AB
:100AE0000E940E0299E0BE016F5F7F4FDB01E92F8C
:100AF0001D92EA95E9F799831A8391E09E8390EA23
:100B000098879AEF998720913F0130914001275FA4
:100B10003F4F3C832B838D831092E900109240015C
:100B200010923F01F0923E01E0923D0149E050E019
:100B300080E00E94E7010E940E02E2C0F0923E01B6
:100B4000E0923D010E946801DC011296ED90FC905C
:100B50001397E114F10409F4C0C0D701ED91FC91A1
:100B60000480F581E02DBE016B5E7F4FC7010995C2
:100B7000009719F00CF0C4C0C7C0F701E084F184FD
:100B8000E8CF973009F4C0C0983021F481E0809319
:100B9000F100B6C0993009F0B3C0837009F0B4C059
:100BA000EDE0F1E081E021E036E39081992361F00E
:100BB0008093E9002093EB0091919093EC003093A7
:100BC000ED008F5F873089F78EE78093EA001092FF
:100BD000EA008F898093520193C08B8D9C8D109277
:100BE000E9001092400110923F0190933E018093E2
:100BF0003D01898D811156C08E899D89913A59F4A4
:100C0000813209F081C047E050E064E071E080E0AB
:100C10000E94E70175C0913209F076C0833289F4F1
:100C2000888D90E0982F88272F89822BA0E0B0E054
:100C30008093000190930101A0930201B0930301FE
:100C40005FC0803269F48091E80082FFFCCF67E0EA
:100C500084E091E00E9440028BEF8093E80006C0A0
:100C6000823209F04DC08F8980930B018091410140
:100C7000882319F0EEEFFAE002C0E0E0F8E080919E
:100C8000040190910501A0910601B0910701803BFC
:100C90009440A105B10509F07BC080910B0180FF54
:100CA00093C076C00E946801DC0112960D911C91E0
:100CB00013970115110541F1D801ED91FC910190B7
:100CC000F081E02DBE016B5E7F4FC8010995811157
:100CD00017C0F80100851185ECCF113009F44EC022
:100CE000133091F48F89882309F445C0823081F450
:100CF00040E862E189E591E00E94AA01882321F0A1
:100D00008EEF8093E80079C081E28093EB0075C09C
:100D1000813029F440E868E080E591E0EDCF833050
:100D200099F70E946801DC011296ED90FC901397F0
:100D30008E010F5F1F4F6801E114F10479F0D701B4
:100D4000ED91FC910680F781E02DB801C70109956E
:100D5000080F111DF701E084F184EECFD8011C9239
:100D6000F60101900020E9F73197BF016C197D0968
:100D700040E0C601C1CF6AE371E002C06EE371E0FA
:100D80006115710509F2FB01449150E080E840CF04
:100D90000FB6F894A89580916000886180936000F8
:100DA000109260000FBEA895EE3F2AE0F20739F0DE
:100DB0008091FE0A9091FF0A91838083A1CF1092C7
:100DC000FF0A1092FE0A9CCFEE3F8AE0F80731F04E
:100DD000808191819093FF0A8093FE0A87E797E7CD
:100DE000918380839BE088E10FB6F894A895809367
:100DF00060000FBE9093600083CF6C960FB6F8949E
:100E0000DEBF0FBECDBFDF91CF91FF91EF91BF91BC
:100E1000AF919F918F917F916F915F914F913F9192
:100E20002F911F910F91FF90EF90DF90CF900F9037
:100E30000FBE0F901F9018951F920F920FB60F9232
:100E400011242F933F938F939F93AF93BF938091E0
:100E5000350190913601A0913701B0913801309160
:100E6000340123E0230F2D3720F40196A11DB11D7D
:100E700005C026E8230F0296A11DB11D2093340161
:100E80008093350190933601A0933701B0933801D8
:100E90008091390190913A01A0913B01B0913C01C0
:100EA0000196A11DB11D8093390190933A01A09341
:100EB0003B01B0933C01BF91AF919F918F913F91C6
:100EC0002F910F900FBE0F901F901895CF93DF9327
:100ED000E3E5F1E01382128288EE93E0A0E0B0E057
:100EE00084839583A683B78387E191E09183808390
:100EF0008FEF9FEF95878487C3EAD1E08AE090E087
:100F0000998B888B80E190E09B8B8A8B8EE090E0C0
:100F10009D8B8C8B8FE090E09F8B8E8B8AE00E9464
:100F20000E018A890E940E018C890E940E018E8911
:100F30000E940E01198E188EDF91CF91089578943A
:100F400084B5826084BD84B5816084BD85B58260CE
:100F500085BD85B5816085BD80916E00816080937F
:100F60006E001092810080918100826080938100E8
:100F700080918100816080938100809180008160F8
:100F80008093800080919100826080939100809195
:100F900091008160809391008091900081608093A6
:100FA00090008091C10084608093C1008091C10055
:100FB00082608093C1008091C10081608093C100F4
:100FC0008091C30081608093C3008091C0008260E3
:100FD0008093C0008091C20081608093C2008091A4
:100FE0007A00846080937A0080917A008260809396
:100FF0007A0080917A00816080937A0080917A00F3
:10100000806880937A0010925201109242011092EF
:1010100043018091D70081608093D70080EA80935C
:10102000D80089B5806189BD89B5826089BD09B460
:1010300000FEFDCF0E9485038091D8008F7C8061E7
:101040008093D8008091E000807F8093E0008091C1
:10105000E1008E7E8093E1008DE08093E200559A5E
:10106000209AEEEFFFE7859194918B3F9C4D19F408
:1010700081E0809341018FEF9FEF90936001809317
:101080005F0100E010E08DEC882E8CEC982EA92CEE
:101090008DE3B82EC7E0D0E0C090A701D090A801A2
:1010A000E090A901F090AA0120E030E04FE753E47E
:1010B000C701B6010E94900B87FDBAC08DEC9CEC75
:1010C000ACECBDEB8093A3019093A401A093A50188
:1010D000B093A601A7019601C701B6010E94020CB8
:1010E000882319F085E291E01AC026013701E894BF
:1010F00077F82FEF3FEF4FE75FE7C301B2010E94A0
:10110000020C81110FC02FEF3FEF4FE75FE7C301E4
:10111000B2010E94A30A18162CF489E291E00E9401
:101120001F0482C02FEF3FEF4FE75FE4C701B60116
:101130000E94900B18161CF48DE291E0F0CF2FEF77
:101140003FEF4FE75FECC701B6010E94A30A87FD9E
:10115000F3CF20E030E0A901C701B6010E94A30A45
:1011600087FF0FC0E0915301F09154010190F0818D
:10117000E02D6DE283E591E00995F7FAF094F7F838
:10118000F0942AE037ED43EA5BE3C701B6010E9421
:10119000370A2B013C010E94AF0A6B017C010E94BF
:1011A000DE0A9B01AC01C301B2010E94360A2B0189
:1011B0003C014AE0C701B6010E943704E0915301A7
:1011C000F09154010190F081E02D6EE283E591E011
:1011D000099520E030E040E251E4C301B2010E94F1
:1011E000950B6B017C010E94AF0A2B01612C712CC5
:1011F0004AE0C301B2010E943704C301B2010E9458
:10120000DE0A9B01AC01C701B6010E94360A20E04C
:1012100030E040E251E40E94950B0E94AF0A80E06A
:1012200090E04AE00E94370481E391E00E941F04AD
:1012300020E030E04FE753EC6091A7017091A801E6
:101240008091A9019091AA010E94A30A181644F066
:101250008092A3019092A401A092A501B092A60150
:101260000E9460032B013C016093AF017093B001B9
:101270008093B1019093B201C090A701D090A801D2
:10128000E090A901F090AA0120E030E0A901C70197
:10129000B6010E94900B18161CF4C701B60103C0DA
:1012A000C701B60190580E94A80A6115710509F49A
:1012B000BCC08091AB019091AC01A091AD01B09107
:1012C000AE01481A590A6A0A7B0A9B012F5F3F4FF9
:1012D000032E000C440B550B60E078EE83E090E0A9
:1012E0000E94290C421653066406750608F49DC038
:1012F000E091BB01F091BC01E830F10508F041C07C
:10130000EB59FF4F0C94480C60E02BC060E08091DB
:10131000B3010E94FD0260E08091B5010E94FD02D0
:1013200061E029C060E08091B3010E94FD0260E0AD
:1013300006C060E08091B3010E94FD0261E08091EF
:10134000B5010E94FD0261E027C060E001C061E0DC
:101350008091B3010E94FD0261E019C061E012C0FA
:1013600061E08091B3010E94FD0260E08091B501CF
:101370000E94FD0260E08091B7010E94FD0261E0E1
:1013800010C060E08091B3010E94FD0260E0809196
:10139000B5010E94FD0260E08091B7010E94FD024C
:1013A00060E08091B9010E94FD0220E030E0A901D7
:1013B0006091A7017091A8018091A9019091AA0163
:1013C0000E94900B2091BB013091BC0118161CF4B7
:1013D0002F5F3F4F02C0215031093093BC01209351
:1013E000BB018091BB019091BC01089724F0109241
:1013F000BC011092BB018091BB019091BC0197FF91
:1014000004C0D093BC01C093BB018091AF01909107
:10141000B001A091B101B091B2018093AB01909362
:10142000AC01A093AD01B093AE012091A301309126
:10143000A4014091A5015091A6016091A70170916E
:10144000A8018091A9019091AA010E94370A609396
:10145000A7017093A8018093A9019093AA01011597
:10146000110509F419CE0E94000016CE5058BB2772
:10147000AA270E944E0A0C94560B0E94480B38F083
:101480000E944F0B20F039F49F3F19F426F40C947E
:10149000450B0EF4E095E7FB0C943F0BE92F0E94FF
:1014A000670B58F3BA17620773078407950720F094
:1014B00079F4A6F50C94890B0EF4E0950B2EBA2F57
:1014C000A02D0B01B90190010C01CA01A00111244A
:1014D000FF27591B99F0593F50F4503E68F11A16F6
:1014E000F040A22F232F342F4427585FF3CF469587
:1014F00037952795A795F0405395C9F77EF41F16A9
:10150000BA0B620B730B840BBAF09150A1F0FF0F72
:10151000BB1F661F771F881FC2F70EC0BA0F621F5E
:10152000731F841F48F4879577956795B795F7954E
:101530009E3F08F0B0CF9395880F08F09927EE0FE3
:101540009795879508950E941B0B08F481E00895F4
:101550000E94AF0A6894B1110C948A0B08950E94FE
:101560006F0B88F09F5798F0B92F9927B751B0F0BB
:10157000E1F0660F771F881F991F1AF0BA95C9F717
:1015800014C0B13091F00E94890BB1E008950C9421
:10159000890B672F782F8827B85F39F0B93FCCF3D4
:1015A000869577956795B395D9F73EF49095809594
:1015B000709561957F4F8F4F9F4F0895E89409C0B4
:1015C00097FB3EF490958095709561957F4F8F4F76
:1015D0009F4F9923A9F0F92F96E9BB279395F6958C
:1015E000879577956795B795F111F8CFFAF4BB0F0A
:1015F00011F460FF1BC06F5F7F4F8F4F9F4F16C06E
:10160000882311F096E911C0772321F09EE8872FF7
:10161000762F05C0662371F096E8862F70E060E0B3
:101620002AF09A95660F771F881FDAF7880F96952C
:10163000879597F90895990F0008550FAA0BE0E8D0
:10164000FEEF16161706E807F907C0F01216130684
:10165000E407F50798F0621B730B840B950B39F4C4
:101660000A2661F0232B242B252B21F408950A262A
:1016700009F4A140A6958FEF811D811D089597F96A
:101680009F6780E870E060E008959FEF80EC089528
:1016900000240A9416161706180609060895002451
:1016A0000A9412161306140605060895092E0394CB
:1016B000000C11F4882352F0BB0F40F4BF2B11F43F
:1016C00060FF04C06F5F7F4F8F4F9F4F089557FD9E
:1016D0009058440F551F59F05F3F71F04795880FA0
:1016E00097FB991F61F09F3F79F087950895121637
:1016F00013061406551FF2CF4695F1DF08C01616E3
:1017000017061806991FF1CF869571056105089493
:101710000895E894BB2766277727CB0197F90895AA
:101720000E941B0B08F48FEF08950E94A80B0C94E5
:10173000560B0E94480B38F00E944F0B20F0952367
:1017400011F00C943F0B0C94450B11240C948A0B54
:101750000E94670B70F3959FC1F3950F50E0551FE2
:10176000629FF001729FBB27F00DB11D639FAA27F6
:10177000F00DB11DAA1F649F6627B00DA11D661F45
:10178000829F2227B00DA11D621F739FB00DA11D66
:10179000621F839FA00D611D221F749F3327A00D20
:1017A000611D231F849F600D211D822F762F6A2FBC
:1017B00011249F5750409AF0F1F088234AF0EE0F21
:1017C000FF1FBB1F661F771F881F91505040A9F74E
:1017D0009E3F510580F00C943F0B0C948A0B5F3FA9
:1017E000E4F3983ED4F3869577956795B795F7958A
:1017F000E7959F5FC1F7FE2B880F911D9695879502
:1018000097F908950E941B0B880B990B0895A1E28C
:101810001A2EAA1BBB1BFD010DC0AA1FBB1FEE1F6A
:10182000FF1FA217B307E407F50720F0A21BB30BB5
:10183000E40BF50B661F771F881F991F1A9469F731
:1018400060957095809590959B01AC01BD01CF018D
:101850000895052E97FB1EF400940E94400C57FD3E
:1018600007D00E94070C07FC03D04EF40C94400CE8
:1018700050954095309521953F4F4F4F5F4F0895BC
:1018800090958095709561957F4F8F4F9F4F0895EC
:10189000EE0FFF1F0590F491E02D099481E090E098
:0A18A000F8940C94530CF894FFCF59
:1018AA00FFFFFFFF00E100000000000000C180818F
:1018BA000000000000000078029F0399028E02DFF8
:1018CA00029D02BB026E616E00696E66006F7666EB
:0418DA00000D0A00F3
:1070000055C000006EC000006CC000006AC00000E7
:1070100068C0000066C0000064C0000062C00000DC
:1070200060C000005EC00000FCC400005AC0000048
:1070300058C0000056C0000054C0000052C00000FC
:1070400050C000005DC000004CC000004AC00000FD
:1070500048C0000046C0000044C0000042C000001C
:1070600040C000003EC000003CC000003AC000002C
:1070700038C0000036C0000034C0000032C000003C
:1070800030C000002EC000002CC000002AC000004C
:1070900028C0000026C0000024C0000022C000005C
:1070A00020C000001EC000001CC0000011241FBE34
:1070B000CFEFDAE0DEBFCDBF11E0A0E0B1E0E6E463
:1070C000FFE702C005900D92A43BB107D9F711E08C
:1070D000A4EBB1E001C01D92AD3CB107E1F74FD385
:1070E00030C78ECFF89410926F001092810081E02B
:1070F00085BF15BE47985D9A289A0C9400000895A4
:107100001F920F920FB60F9211242F938F939F937C
:10711000EF93FF9310928500109284008091B40148
:107120009091B501009741F001979093B50180933C
:10713000B401892B09F45D9A8091B6019091B70151
:10714000009741F001979093B7018093B601892B86
:1071500009F4289A8091BA019091BB01019690930D
:10716000BB018093BA01E0E0F0E0859194918F5FDC
:107170009F4F49F08091B8019091B9010196909389
:10718000B9018093B801FF91EF919F918F912F9159
:107190000F900FBE0F901F90189584E08093E90028
:1071A0000DC08091E8008B778093E80003C08EB318
:1071B000882351F08091E80082FFF9CF8091E800A8
:1071C00085FFEFCF8091F1000895982F83E08093A1
:1071D000E9008091E80085FD0DC08091E8008E7780
:1071E0008093E80003C08EB3882369F08091E800A3
:1071F00080FFF9CF9093F1005D9884E690E0909342
:10720000B5018093B40108954F925F926F927F927F
:107210008F929F92AF92BF92CF92DF92EF92FF92A6
:107220000F931F93CF93DF9384E08093E9008091C5
:10723000E80082FF57C2289884E690E09093B70157
:107240008093B601AADF182F853481F48CE49DE188
:107250009093B9018093B80107B600FCFDCFF9996E
:10726000FECF81E180935700E89503C0843519F47F
:1072700094DF8DE00DC28C34E1F38035D1F3843797
:1072800021F484E4A2DF80E003C2813611F489E5B1
:10729000FFC18134B1F481DF182F7FDF90E0880FC8
:1072A000991FAA2797FDA095BA2F312F330F20E001
:1072B000442737FD4095542F822B932BA42BB52BBD
:1072C000B8C1803711F483E5E3C1833549F4C0E0E8
:1072D000D1E089917ADF21E0C730D207D1F7D9C157
:1072E000863521F481E371DF80E3D2C1833731F445
:1072F00087E86BDF85E969DF8EE1CAC18536B9F4BD
:10730000E0E0F0E093E085E090935700E89507B661
:1073100000FCFDCF80935700E89507B600FCFDCF39
:10732000E058FF4FA0E7E030FA0771F7A2CF8237AD
:1073300039F4E1E0F0E089E0809357008491A8C13E
:10734000863439F4E0E0F0E089E0809357008491DE
:107350009FC18E3439F4E3E0F0E089E08093570078
:10736000849196C1813539F4E2E0F0E089E08093C0
:10737000570084918DC1823631F489E526DF80E0A3
:1073800024DF80E885C1823419F0873609F0E5C032
:107390001092B9011092B80100DF082FFEDEF82E1E
:1073A000FCDE682E8554823008F071C1902F80E099
:1073B000CF2DD0E0C82BD92B10926F00173609F0D3
:1073C0004BC081E180935700E895DD24CC24C39421
:1073D0003FC0E090BD01F090BE010091BF0110914F
:1073E000C001B6E46B16D9F4ED2DF0E0EE29FF29CB
:1073F000E4918E2FEADEDD2081F082E090E0A0E0D3
:10740000B0E0E80EF91E0A1F1B1FE092BD01F092CA
:10741000BE010093BF011093C001DC2418C0D80145
:10742000C701B695A7959795879575D5CEDE82E06D
:1074300090E0A0E0B0E0E80EF91E0A1F1B1FE092EA
:10744000BD01F092BE010093BF011093C0012197CE
:10745000209709F0BECF7DC08090BD019090BE0105
:10746000A090BF01B090C00196E4691609F05DC01C
:1074700083E0F40180935700E89507B600FCFDCF48
:1074800054C0F6E46F1661F5772031F1E090BD014C
:10749000F090BE010091BF011091C0017EDED82E98
:1074A000CC24852D90E08C299D29F7010C01409278
:1074B0005700E895112482E090E0A0E0B0E0E80EEB
:1074C000F91E0A1F1B1FE092BD01F092BE0100933E
:1074D000BF011093C00102C060DE582E742423C087
:1074E000E090BD01F090BE010091BF011091C0017C
:1074F00016950795F794E79450DE682FC70113D5CA
:107500008091BD019091BE01A091BF01B091C001D9
:107510000296A11DB11D8093BD019093BE01A09361
:10752000BF01B093C001219704C05524772444249F
:107530004394209709F0A5CF96E4691641F485E0BD
:10754000F40180935700E89507B600FCFDCF8DE06D
:107550003CDE82E080936F009CC0833471F4009124
:10756000BD011091BE0119DE90E021E0F8010C018F
:1075700020935700E89511247CCE833619F5E090CE
:10758000BD01F090BE010091BF011091C00105DE68
:10759000F701E16090E021E00C0120935700E895AD
:1075A000112482E090E0A0E0B0E0E80EF91E0A1F8E
:1075B0001B1FE092BD01F092BE010093BF0110932A
:1075C000C00157CE8D3661F4E091BD01F091BE014E
:1075D00085E080935700E89507B600FCFDCF49CEC3
:1075E000823551F4E091BD01F091BE0105911491F5
:1075F000812FEBDD802F4CC0843421F5E090BD015C
:10760000F090BE010091BF011091C0011695079541
:10761000F794E794C2DD682FC70185D48091BD013E
:107620009091BE01A091BF01B091C0010296A11D31
:10763000B11D8093BD019093BE01A093BF01B09393
:10764000C00117CE843609F5E090BD01F090BE016F
:107650000091BF011091C001D801C701B695A7954F
:107660009795879558D4B1DD82E090E0A0E0B0E036
:10767000E80EF91E0A1F1B1FE092BD01F092BE0129
:107680000093BF011093C00104C08B3111F08FE350
:107690009CDD83E08093E9009091E8008091E80010
:1076A0008E778093E80095FF04C010C08EB38823C6
:1076B000C9F08091E80080FFF9CF8091E8008E77D3
:1076C0008093E80003C08EB3882361F08091E800C6
:1076D00080FFF9CF84E08093E9008091E8008B7708
:1076E0008093E800DF91CF911F910F91FF90EF9071
:1076F000DF90CF90BF90AF909F908F907F906F90D2
:107700005F904F9008959091C501892F8F778132B6
:1077100049F58091C6018032A1F0813219F5913A84
:1077200009F58091E800877F8093E8008CE091E084
:1077300067E070E027D28091E8008B778093E800C3
:107740000895913279F48091E800877F8093E80072
:107750008CE091E067E070E079D28091E8008E776C
:107760008093E800089582E061EC42E0D1D083E0AC
:1077700061E842E1CDD084E060E842E1C9C01F93F6
:10778000209100081092000844B714BE88E10FB69B
:10779000F89480936000109260000FBE80E8E0E0F3
:1077A000F0E00FB6F89480936100E09361000FBEA3
:1077B00031E035BF92E095BF3F9A209A559A809369
:1077C00061001092610047985D9A289A1092890092
:1077D0008AEF8093880090936F0083E0809381000C
:1077E000859194918F5F9F4F11F03093BC01942F3E
:1077F00041FF19C0809109012817A9F08093000862
:10780000789480911301882339F08091BA01909186
:10781000BB018F5E9240C8F3F8941092000881E09B
:10782000809313010CC090FF04C08091BC01882399
:1078300051F493FF09C080910901281729F0809124
:10784000BC01882309F04EDCD4D078941092B901A1
:107850001092B8011EEF20C0D7DC4BD38091B80145
:107860009091B90181549F4110F0109213018091C1
:10787000C1019091C20101969093C2018093C10110
:10788000292F97FF03C0512F591B252F220F28178F
:1078900010F4479801C0479A809113018823E1F6BC
:1078A0008091E00081608093E0001CDC80E090E04B
:1078B0001F910895FA01923049F0933061F09130B0
:1078C000F9F484E191E022E130E01EC086E291E02B
:1078D0002EE330E019C0882329F484E691E024E007
:1078E00030E012C0813029F488E691E02EE130E0EA
:1078F0000BC0823029F488E891E02AE230E004C02D
:1079000080E090E020E030E091838083C901089519
:107910008093E9008091EB0081608093EB001092EE
:10792000ED006093EC004093ED008091EE00881F25
:107930008827881F08958091C50188238CF403C08F
:107940008EB38823B1F08091E80082FFF9CF809157
:10795000E8008B778093E80008958EB3882349F080
:107960008091E80080FFF9CF8091E8008E778093C6
:10797000E8000895EF92FF920F931F9345D04CD0EB
:1079800008ED10E0F80180818F7780838081806826
:10799000808380818F7D808319BC1EBA1092C301C1
:1079A00080EEE82EF12CF70180818B7F8083F80137
:1079B00080818160808380E060E042E0A9DFE1EEC9
:1079C000F0E080818E7F8083E2EEF0E08081816054
:1079D0008083808188608083F70180818E7F8083AF
:1079E000F8018081806180831F910F91FF90EF905B
:1079F0000895E7EDF0E08081816080838AE482BFB2
:107A000081E08093C401B6CFE8EDF0E080818E7F05
:107A100080831092E20008951092DA001092E10043
:107A200008951F920F920FB60F9211242F933F9338
:107A30004F935F936F937F938F939F93AF93BF9376
:107A4000EF93FF938091DA0080FF1BC08091D800F4
:107A500080FF17C08091DA008E7F8093DA008091DA
:107A6000D90080FF0BC080E189BD82E189BD09B4E6
:107A700000FEFDCF81E08EBB3BD203C019BC1EBA15
:107A800037D28091E10080FF17C08091E20080FF33
:107A900013C08091E2008E7F8093E2008091E2002B
:107AA00080618093E2008091D80080628093D8004A
:107AB00019BC85E08EBB1CD28091E10084FF2CC0F4
:107AC0008091E20084FF28C080E189BD82E189BD08
:107AD00009B400FEFDCF8091D8008F7D8093D8003F
:107AE0008091E1008F7E8093E1008091E2008F7EA3
:107AF0008093E2008091E20081608093E2008091B7
:107B0000C301882331F48091E30087FD02C081E046
:107B100001C084E08EBBECD18091E10083FF21C0E5
:107B20008091E20083FF1DC08091E100877F8093F8
:107B3000E10082E08EBB1092C3018091E1008E7F54
:107B40008093E1008091E2008E7F8093E20080913B
:107B5000E20080618093E20080E060E042E0D8DEF5
:107B6000C7D1FF91EF91BF91AF919F918F917F917D
:107B70006F915F914F913F912F910F900FBE0F909A
:107B80001F9018959C014091CB015091CC01461754
:107B9000570718F4F90190E044C06115710511F020
:107BA000AB01F8CF8091E8008E778093E80040E049
:107BB00050E0F0CF8EB3882309F444C0853009F437
:107BC00043C08091E80083FF02C081E00895809166
:107BD000E80082FD31C08091E80080FF22C08091E2
:107BE000F3009091F200782F60E0292F30E0262BEF
:107BF000372B07C081918093F100415050402F5F97
:107C00003F4F4115510519F02830310598F390E0A8
:107C10002830310509F491E08091E8008E77809357
:107C2000E8004115510531F6992321F605C08EB3C0
:107C3000882341F0853041F08091E80082FFF7CF42
:107C400080E0089582E0089583E008959C01611525
:107C5000710529F48091E8008B778093E800F901A1
:107C600026C08EB3882391F1853091F18091E80090
:107C700083FF02C081E008958091E80082FFF1CF88
:107C800006C08091F10081936150704059F02091BD
:107C9000F3008091F200322F20E090E0822B932BB2
:107CA000892B79F78091E8008B778093E800611544
:107CB0007105B9F605C08EB3882341F0853041F0D7
:107CC0008091E80080FFF7CF80E0089582E008957A
:107CD00083E008950F931F93DF93CF9300D0CDB728
:107CE000DEB7E5ECF1E08091F100819381E0ED3CBD
:107CF000F807C9F708DD8091E80083FFE4C08091B0
:107D0000C5019091C601953009F46DC0963040F4DC
:107D1000913081F1913070F0933009F0D4C02AC0D5
:107D2000983009F4A3C0993009F4B2C0963009F034
:107D3000CAC07CC0803809F4C6C0823809F0C3C00C
:107D40008091C90187708093E9008091EB001092C7
:107D5000E9002091E800277F2093E80090E025E0EB
:107D6000969587952A95E1F781708093F10010929E
:107D7000F10087C0882319F0823009F0A4C08F7108
:107D8000823009F0A0C08091C701882331F520918D
:107D9000C901277009F497C02093E9008091EB0096
:107DA00080FF1BC0933021F48091EB00806213C0F0
:107DB0008091EB0080618093EB0081E090E002C055
:107DC000880F991F2A95E2F78093EA001092EA0043
:107DD0008091EB0088608093EB001092E900809125
:107DE000E800877F51C0882309F06DC01091C7015A
:107DF0001F770FB7F8948091E800877F8093E800A1
:107E00009ADD8091E80080FFFCCF8091E3008078CC
:107E1000812B8093E30080688093E300112311F4A9
:107E200082E001C083E08EBB0FBF4DC0805882301E
:107E300008F049C08091C7019091C8016091C901C3
:107E4000AE014F5F5F4F36DDBC01009709F43BC0C8
:107E50008091E800877F8093E80089819A8192DE93
:107E60008091E8008B778093E8002DC0803859F529
:107E70008091E800877F8093E8008091C301809320
:107E8000F1008091E8008E778093E80054DD1BC0FC
:107E90008823C9F49091C7019230A8F48091E8003A
:107EA000877F8093E8009093C30145DD8091C301F3
:107EB000882331F48091E30087FD02C081E001C096
:107EC00084E08EBB50DC8091E80083FF0AC0809183
:107ED000EB0080628093EB008091E800877F8093C5
:107EE000E8000F900F90CF91DF911F910F910895AF
:107EF00008951F938EB3882361F01091E9001092CA
:107F0000E9008091E80083FF01C0E4DE1770109360
:107F1000E9001F910895F999FECF92BD81BDF89AAD
:107F2000992780B50895262FF999FECF1FBA92BDE3
:107F300081BD20BD0FB6F894FA9AF99A0FBE01964A
:067F40000895F894FFCF44
:107F46004341544552494E41007700080000000065
:107F56000000080112011001020000084F1B0592E3
:107F660001000201000109023E00020100803209FF
:107F7600040000010202010005240010010424028D
:107F8600040524060001070582030800FF09040111
:107F960000020A000000070504021000010705831D
:107FA60002100001040309041E03500072006F0052
:107FB60020004D006900630072006F00200035004C
:107FC60056002000200000002A03530070006100C4
:107FD60072006B00460075006E00200045006C00C4
:107FE60065006300740072006F006E006900630034
:047FF6007300000014
:040000030000700089
:00000001FF