:100000000C94E4000C940C010C940C010C940C0165
:100010000C940C010C940C010C940C010C940C012C
:100020000C940C010C940C010C947A040C94EC04C8
:100030000C940C010C940C010C940C010C940C010C
:100040000C940C010C940C010C940C010C940C01FC
:100050000C940C010C940C010C940C010C941C07D6
:100060000C940C010C940C010C940C010C940C01DC
:100070000C940C010C940C010C940C010C940C01CC
:100080000C940C010C940C010C940C010C940C01BC
:100090000C940C010C940C010C940C010C940C01AC
:1000A0000C940C010C940C010C940C0128032B03F0
:1000B0001A031E0322034C034C034C032F03330388
:1000C00037033D0341034C034703910993099F09FB
:1000D000A609B209B409BB09BD0900000002000964
:1000E0000F0000030401000C0000000000000000ED
:1000F0000000000000000000080B000202020100E6
:10010000090400000102020000052400100105247A
:1001100001010104240206052406000107058103EC
:1001200010004009040100020A0000000705020255
:100130004000000705830240000004030904120187
:100140000002EF0201404F1B069200010102030171
:10015000537061726B46756E00537061726B4675B9
:100160006E2050726F204D6963726F0000000000B6
:10017000250028002B002E00310000000000240084
:1001800027002A002D0030000404040404030405A1
:100190000202020204030202020206060606060624
:1001A000040402020204040408020110408040100A
:1001B000204080408008020401804020100201108D
:1001C000801020404020660711241FBECFEFDAE0E8
:1001D000DEBFCDBF11E0A0E0B1E0E4ECF8E102C089
:1001E00005900D92A433B107D9F721E0A4E3B1E063
:1001F00001C01D92AD3BB207E1F710E0C4EED0E0C4
:1002000004C02197FE010E94550CC33ED107C9F7D7
:100210000E949F070C94600C0C94000090E0FC017D
:10022000E955FE4F2491FC01E857FE4F8491882345
:1002300099F090E0880F991FFC01E658FE4FA591B8
:10024000B491FC01E459FE4F859194918FB7F894D5
:10025000EC91E22BEC938FBF0895FC018091520149
:10026000811103C08FEF9FEF08959FB7F89482E04C
:100270008093E9002091F20030E01216130614F486
:1002800021E030E02115310559F0289884E680936B
:1002900051018091F10080838091F200882319F050
:1002A0009FBFC90108958BE68093E800F9CF2FB76F
:1002B000F89483E08093E9009091E800892F8072A0
:1002C00095FF04C09091F20080E4891B2FBF089530
:1002D0008091490181110DC082E08093450184E045
:1002E00080934601109248011092470181E080936B
:1002F000490185E491E0089540913F01509140010A
:1003000020913D0130913E0142175307B4F4909182
:10031000E8009570E1F39091E80092FD19C0809398
:10032000F10080913F019091400101968F739927D0
:10033000892B19F48EEF8093E80080913F01909112
:10034000400101969093400180933F0181E0089520
:1003500080E00895CF92DF92EF92FF920F931F9368
:10036000CF93DF931F92CDB7DEB7182F062FE42E61
:10037000862F880F8E5F99830E947C0183E00E9404
:100380007C01F12EC12E9981D92E8C2D8F198017C9
:1003900098F4F601E7FE02C0849101C080810E94BA
:1003A0007C01182F80E00E947C018123FFEFCF1A8F
:1003B000DF0A8111EACF01C081E00F90DF91CF9178
:1003C0001F910F91FF90EF90DF90CF900895DF92F3
:1003D000EF92FF920F931F93CF93DF93D82E8A0152
:1003E0007B01E40EF51EEB01CE15DF0571F0D7FEA3
:1003F00003C0FE01849101C088810E947C01219686
:100400008111F2CF8FEF9FEF01C0C801DF91CF9133
:100410001F910F91FF90EF90DF9008950F931F931E
:10042000CF93DF931F92CDB7DEB782E0898342E49A
:1004300050E068EF70E080E80E94E7010E946801E8
:10044000DC0112960D911C9113970115110569F0AD
:10045000D801ED91FC910280F381E02DBE016F5F28
:100460007F4FC801099597FF07C089810F90DF91E1
:10047000CF911F910F910895F80100851185E5CF67
:10048000615030F02091F100FC0120830196F8CFFB
:10049000289884E6809351010895CF92DF92EF92DD
:1004A000FF920F931F93CF93DF936C017A018B011F
:1004B000C0E0D0E0CE15DF0589F0D8016D918D0147
:1004C000D601ED91FC910190F081E02DC6010995D6
:1004D000892B11F47E0102C02196ECCFC701DF9178
:1004E000CF911F910F91FF90EF90DF90CF900895E3
:1004F000CF93DF931F92CDB7DEB76983DC01ED9117
:10050000FC910280F381E02D41E050E0BE016F5F7D
:100510007F4F09950F90DF91CF91089583E08093ED
:10052000E9008091F200882319F08AE38093E800C3
:1005300008950E94570190E00895CF93DF931F9292
:10054000CDB7DEB7FC018485958597FD05C02FEFFB
:100550003FEF358724870BC0CE0101960E942D0105
:10056000019719F4898190E002C08FEF9FEF0F90FF
:10057000DF91CF9108950F931F93CF93DF931F9235
:10058000CDB7DEB78C01FC018485958597FF0EC041
:10059000CE0101960E942D01019719F4298130E0C6
:1005A00002C02FEF3FEFF80135872487F8018485DB
:1005B00095850F90DF91CF911F910F910895FC01C8
:1005C0008485958597FD0BC09FB7F89482E0809352
:1005D000E9008091F2009FBF90E0019608959FB7D7
:1005E000F89482E08093E9008091F2009FBF90E050
:1005F0000895089580E090E00895362F90E0FC0182
:10060000E652FF4F4491FC01E955FE4F2491FC0155
:10061000E857FE4F8491882309F451C04423E1F147
:1006200050E0FA013197EF30F105B0F5EA5AFF4F8B
:100630000C94550C909180009F7707C0909180009A
:100640009F7D03C090918000977F9093800024C08D
:1006500094B59F7702C094B59F7D94BD1DC09091C5
:1006600090009F7707C0909190009F7D03C090916C
:100670009000977F909390000FC09091C0009F775B
:1006800003C09091C0009F7D9093C00005C09091E1
:10069000C200977F9093C200E82FF0E0EE0FFF1F9B
:1006A000E459FE4FA591B4918FB7F894EC913111B4
:1006B00003C020952E2301C02E2B2C938FBF0895AD
:1006C0003FB7F8948091390190913A01A0913B0194
:1006D000B0913C0126B5A89B05C02F3F19F00196AB
:1006E000A11DB11D3FBFBA2FA92F982F8827820FB8
:1006F000911DA11DB11DBC01CD0142E0660F771F08
:10070000881F991F4A95D1F70895CF92DF92EF92F3
:10071000FF920E9460036B017C010E946003DC0178
:10072000CB018C199D09AE09BF09883E9340A105F4
:10073000B10598F3FF90EF90DF90CF9008958F92DE
:100740009F92AF92BF92CF92DF92EF92FF920F9360
:100750001F93CF93DF936C015B017A0180910B01B2
:10076000882309F456C080915201882309F451C0AE
:100770008091430180FF05C08091E00082608093FA
:10078000E000E70110E00AEF83E0882E9AE3992E5B
:100790002097B1F10E945701811105C00150C9F1A4
:1007A0000E948503F5CF282F30E0C217D3070CF441
:1007B0008C2F4FB7F8948092E9009091E80095FF54
:1007C0001DC0282F30E0C21BD30BF501982F91508C
:1007D00020F081918093F100FACFA20EB31E112375
:1007E00019F09092E80009C08091E80085FD06C0EC
:1007F0009092E80011E0209709F010E04FBFC8CFB9
:100800001111C8CF5D9884E6809344011E141F0423
:1008100044F081E090E0F6019383828380E090E0F1
:1008200001C0C701DF91CF911F910F91FF90EF9011
:10083000DF90CF90BF90AF909F908F900895BC01B4
:10084000009791F0FC0101900020E9F73197AF018A
:10085000481B590BE0915301F09154010280F38140
:10086000E02D83E591E0099480E090E008958F9277
:100870009F92AF92BF920F931F93CF93DF93CDB709
:10088000DEB7A1970FB6F894DEBF0FBECDBF19A299
:10089000423008F44AE08E010F5D1F4F842E912CE8
:1008A000A12CB12CA50194010E94140CE62FB901D2
:1008B000CA0101501109EA3014F4E05D01C0E95C9D
:1008C000D801EC93232B242B252B61F7C8010E9420
:1008D0001F04A1960FB6F894DEBF0FBECDBFDF9107
:1008E000CF911F910F91BF90AF909F908F900895DF
:1008F0000E945B0C1F920F920FB60F9211248F93E0
:100900009F938091E1009091E100937F9093E100AB
:1009100083FF0FC01092E90091E09093EB001092DA
:10092000EC0092E39093ED001092520198E09093C6
:10093000F00082FF20C093E09093E9009091F200D4
:10094000992319F09AE39093E80090914401992338
:1009500039F090914401915090934401992389F189
:1009600090915101992339F09091510191509093B8
:100970005101992341F184FF10C08091E2008E7EE5
:1009800081608093E2008091E1008F7E8093E1009E
:10099000809143018E7E806111C080FF16C08091DE
:1009A000E2008E7E80618093E2008091E1008E7E85
:1009B0008093E100809143018E7E816080934301AA
:1009C00004C05D9ACDCF289AD6CF9F918F910F907A
:1009D0000FBE0F901F9018951F920F920FB60F9297
:1009E0001124CF92DF92EF92FF920F931F932F93D8
:1009F0003F934F935F936F937F938F939F93AF93A7
:100A0000BF93EF93FF93CF93DF93CDB7DEB76C9790
:100A1000DEBFCDBF1092E9008091E80083FFEDC1F9
:100A200068E0CE0145960E94400282EF8093E80084
:100A30008D8987FF05C09091E80090FFFCCF03C02F
:100A40009EEF9093E800982F907609F0C6C09E899B
:100A50002F89188D91110CC0803829F480914201A2
:100A60008093F10002C01092F1001092F10048C191
:100A7000422F50E0512B913051F4811141C141304E
:100A8000510509F03DC1809142018D7F0BC093302B
:100A900061F4811135C14130510509F031C18091B6
:100AA00042018260809342012BC1953041F48091D4
:100AB000E80080FFFCCF20682093E30021C196303E
:100AC00009F05FC0EB8CFC8C1092E90010924001A1
:100AD00010923F01123091F510923E0110923D01AB
:100AE0000E940E0299E0BE016F5F7F4FDB01E92F8C
:100AF0001D92EA95E9F799831A8391E09E8390EA23
:100B000098879AEF998720913F0130914001275FA4
:100B10003F4F3C832B838D831092E900109240015C
:100B200010923F01F0923E01E0923D0149E050E019
:100B300080E00E94E7010E940E02E2C0F0923E01B6
:100B4000E0923D010E946801DC011296ED90FC905C
:100B50001397E114F10409F4C0C0D701ED91FC91A1
:100B60000480F581E02DBE016B5E7F4FC7010995C2
:100B7000009719F00CF0C4C0C7C0F701E084F184FD
:100B8000E8CF973009F4C0C0983021F481E0809319
:100B9000F100B6C0993009F0B3C0837009F0B4C059
:100BA000EDE0F1E081E021E036E39081992361F00E
:100BB0008093E9002093EB0091919093EC003093A7
:100BC000ED008F5F873089F78EE78093EA001092FF
:100BD000EA008F898093520193C08B8D9C8D109277
:100BE000E9001092400110923F0190933E018093E2
:100BF0003D01898D811156C08E899D89913A59F4A4
:100C0000813209F081C047E050E064E071E080E0AB
:100C10000E94E70175C0913209F076C0833289F4F1
:100C2000888D90E0982F88272F89822BA0E0B0E054
:100C30008093000190930101A0930201B0930301FE
:100C40005FC0803269F48091E80082FFFCCF67E0EA
:100C500084E091E00E9440028BEF8093E80006C0A0
:100C6000823209F04DC08F8980930B018091410140
:100C7000882319F0EEEFFAE002C0E0E0F8E080919E
:100C8000040190910501A0910601B0910701803BFC
:100C90009440A105B10509F07BC080910B0180FF54
:100CA00093C076C00E946801DC0112960D911C91E0
:100CB00013970115110541F1D801ED91FC910190B7
:100CC000F081E02DBE016B5E7F4FC8010995811157
:100CD00017C0F80100851185ECCF113009F44EC022
:100CE000133091F48F89882309F445C0823081F450
:100CF00040E862E189E591E00E94AA01882321F0A1
:100D00008EEF8093E80079C081E28093EB0075C09C
:100D1000813029F440E868E080E591E0EDCF833050
:100D200099F70E946801DC011296ED90FC901397F0
:100D30008E010F5F1F4F6801E114F10479F0D701B4
:100D4000ED91FC910680F781E02DB801C70109956E
:100D5000080F111DF701E084F184EECFD8011C9239
:100D6000F60101900020E9F73197BF016C197D0968
:100D700040E0C601C1CF6AE371E002C06EE371E0FA
:100D80006115710509F2FB01449150E080E840CF04
:100D90000FB6F894A89580916000886180936000F8
:100DA000109260000FBEA895EE3F2AE0F20739F0DE
:100DB0008091FE0A9091FF0A91838083A1CF1092C7
:100DC000FF0A1092FE0A9CCFEE3F8AE0F80731F04E
:100DD000808191819093FF0A8093FE0A87E797E7CD
:100DE000918380839BE088E10FB6F894A895809367
:100DF00060000FBE9093600083CF6C960FB6F8949E
:100E0000DEBF0FBECDBFDF91CF91FF91EF91BF91BC
:100E1000AF919F918F917F916F915F914F913F9192
:100E20002F911F910F91FF90EF90DF90CF900F9037
:100E30000FBE0F901F9018951F920F920FB60F9232
:100E400011242F933F938F939F93AF93BF938091E0
:100E5000350190913601A0913701B0913801309160
:100E6000340123E0230F2D3720F40196A11DB11D7D
:100E700005C026E8230F0296A11DB11D2093340161
:100E80008093350190933601A0933701B0933801D8
:100E90008091390190913A01A0913B01B0913C01C0
:100EA0000196A11DB11D8093390190933A01A09341
:100EB0003B01B0933C01BF91AF919F918F913F91C6
:100EC0002F910F900FBE0F901F901895CF93DF9327
:100ED000E3E5F1E01382128288EE93E0A0E0B0E057
:100EE00084839583A683B78387E191E09183808390
:100EF0008FEF9FEF95878487C3EAD1E085E090E08C
:100F0000998B888B86E090E09B8B8A8B87E090E0C2
:100F10009D8B8C8B88E090E09F8B8E8B85E00E9470
:100F20000E018A890E940E018C890E940E018E8911
:100F30000E940E01198E188EDF91CF91089578943A
:100F400084B5826084BD84B5816084BD85B58260CE
:100F500085BD85B5816085BD80916E00816080937F
:100F60006E001092810080918100826080938100E8
:100F700080918100816080938100809180008160F8
:100F80008093800080919100826080939100809195
:100F900091008160809391008091900081608093A6
:100FA00090008091C10084608093C1008091C10055
:100FB00082608093C1008091C10081608093C100F4
:100FC0008091C30081608093C3008091C0008260E3
:100FD0008093C0008091C20081608093C2008091A4
:100FE0007A00846080937A0080917A008260809396
:100FF0007A0080917A00816080937A0080917A00F3
:10100000806880937A0010925201109242011092EF
:1010100043018091D70081608093D70080EA80935C
:10102000D80089B5806189BD89B5826089BD09B460
:1010300000FEFDCF0E9485038091D8008F7C8061E7
:101040008093D8008091E000807F8093E0008091C1
:10105000E1008E7E8093E1008DE08093E200559A5E
:10106000209AEEEFFFE7859194918B3F9C4D19F408
:1010700081E0809341018FEF9FEF90936001809317
:101080005F018DEC9CECACECBDE38093A3019093ED
:10109000A401A093A501B093A60100E010E08AE0AE
:1010A000882E87ED982E83EAA82E8BEBB82EC7E00A
:1010B000D0E0C090A701D090A801E090A901F090E5
:1010C000AA0120E030E04FE753E4C701B6010E94D7
:1010D0009D0B87FDB6C08092A3019092A401A092BF
:1010E000A501B092A601A7019601C701B6010E9411
:1010F0000F0C882319F085E291E01AC02601370110
:10110000E89477F82FEF3FEF4FE75FE7C301B201B5
:101110000E940F0C81110FC02FEF3FEF4FE75FE7E9
:10112000C301B2010E94B00A18162CF489E291E0C2
:101130000E941F0482C02FEF3FEF4FE75FE4C7011B
:10114000B6010E949D0B18161CF48DE291E0F0CFC1
:101150002FEF3FEF4FE75FECC701B6010E94B00AE7
:1011600087FDF3CF20E030E0A901C701B6010E945E
:10117000B00A87FF0FC0E0915301F0915401019034
:10118000F081E02D6DE283E591E00995F7FAF094A6
:10119000F7F8F0942AE037ED43EA5BE3C701B601C4
:1011A0000E94440A2B013C010E94BC0A6B017C0195
:1011B0000E94EB0A9B01AC01C301B2010E94430AE9
:1011C0002B013C014AE0C701B6010E943704E091BF
:1011D0005301F09154010190F081E02D6EE283E51E
:1011E00091E0099520E030E040E251E4C301B20112
:1011F0000E94A20B6B017C010E94BC0A2B01612C96
:10120000712C4AE0C301B2010E943704C301B2014C
:101210000E94EB0A9B01AC01C701B6010E94430A80
:1012200020E030E040E251E40E94A20B0E94BC0AA0
:1012300080E090E04AE00E94370481E391E00E9460
:101240001F0420E030E04FE753EC6091A70170915C
:10125000A8018091A9019091AA010E94B00A1816D4
:1012600064F08AE097EDA3EABBE38093A301909337
:10127000A401A093A501B093A6010E9460032B01D5
:101280003C016093AF017093B0018093B1019093E2
:10129000B201C090A701D090A801E090A901F09000
:1012A000AA0120E030E0A901C701B6010E949D0B10
:1012B00018161CF4C701B60103C0C701B601905847
:1012C0000E94B50A6115710509F4BCC08091AB019B
:1012D0009091AC01A091AD01B091AE01481A590AAC
:1012E0006A0A7B0A9B012F5F3F4F032E000C440BC1
:1012F000550B60E078EE83E090E00E94360C4216D9
:1013000053066406750608F49DC0E091BB01F09198
:10131000BC01E830F10508F041C0EB59FF4F0C94D7
:10132000550C60E02BC060E08091B3010E94FD028B
:1013300060E08091B5010E94FD0261E029C060E09B
:101340008091B3010E94FD0260E006C060E08091E0
:10135000B3010E94FD0261E08091B5010E94FD028F
:1013600061E027C060E001C061E08091B3010E94AC
:10137000FD0261E019C061E012C061E08091B3013B
:101380000E94FD0260E08091B5010E94FD0260E0D4
:101390008091B7010E94FD0261E010C060E0809181
:1013A000B3010E94FD0260E08091B5010E94FD0240
:1013B00060E08091B7010E94FD0260E08091B90178
:1013C0000E94FD0220E030E0A9016091A701709128
:1013D000A8018091A9019091AA010E949D0B2091E2
:1013E000BB013091BC0118161CF42F5F3F4F02C0A7
:1013F000215031093093BC012093BB018091BB0186
:101400009091BC01089724F01092BC011092BB018E
:101410008091BB019091BC0197FF04C0D093BC01A7
:10142000C093BB018091AF019091B001A091B10137
:10143000B091B2018093AB019093AC01A093AD0148
:10144000B093AE012091A3013091A4014091A50178
:101450005091A6016091A7017091A8018091A90106
:101460009091AA010E94440A6093A7017093A80179
:101470008093A9019093AA010115110509F419CED1
:101480000E94000016CE5058BB27AA270E945B0A74
:101490000C94630B0E94550B38F00E945C0B20F0FB
:1014A00039F49F3F19F426F40C94520B0EF4E09596
:1014B000E7FB0C944C0BE92F0E94740B58F3BA17FE
:1014C000620773078407950720F079F4A6F50C945A
:1014D000960B0EF4E0950B2EBA2FA02D0B01B9013F
:1014E00090010C01CA01A0011124FF27591B99F09A
:1014F000593F50F4503E68F11A16F040A22F232FA6
:10150000342F4427585FF3CF469537952795A795F5
:10151000F0405395C9F77EF41F16BA0B620B730B9C
:10152000840BBAF09150A1F0FF0FBB1F661F771F0D
:10153000881FC2F70EC0BA0F621F731F841F48F4C2
:10154000879577956795B795F7959E3F08F0B0CF4B
:101550009395880F08F09927EE0F97958795089532
:101560000E94280B08F481E008950E94BC0A689448
:10157000B1110C94970B08950E947C0B88F09F5733
:1015800098F0B92F9927B751B0F0E1F0660F771FA7
:10159000881F991F1AF0BA95C9F714C0B13091F09D
:1015A0000E94960BB1E008950C94960B672F782F4C
:1015B0008827B85F39F0B93FCCF386957795679562
:1015C000B395D9F73EF490958095709561957F4FCE
:1015D0008F4F9F4F0895E89409C097FB3EF4909574
:1015E0008095709561957F4F8F4F9F4F9923A9F0FC
:1015F000F92F96E9BB279395F6958795779567958B
:10160000B795F111F8CFFAF4BB0F11F460FF1BC0CE
:101610006F5F7F4F8F4F9F4F16C0882311F096E961
:1016200011C0772321F09EE8872F762F05C066230F
:1016300071F096E8862F70E060E02AF09A95660FC8
:10164000771F881FDAF7880F9695879597F9089581
:10165000990F0008550FAA0BE0E8FEEF16161706C3
:10166000E807F907C0F012161306E407F50798F02B
:10167000621B730B840B950B39F40A2661F0232B44
:10168000242B252B21F408950A2609F4A140A695C0
:101690008FEF811D811D089597F99F6780E870E0A5
:1016A00060E008959FEF80EC089500240A941616D8
:1016B000170618060906089500240A941216130640
:1016C000140605060895092E0394000C11F48823CE
:1016D00052F0BB0F40F4BF2B11F460FF04C06F5FEA
:1016E0007F4F8F4F9F4F089557FD9058440F551FC0
:1016F00059F05F3F71F04795880F97FB991F61F094
:101700009F3F79F087950895121613061406551F0A
:10171000F2CF4695F1DF08C0161617061806991F76
:10172000F1CF86957105610508940895E894BB276B
:1017300066277727CB0197F908950E94280B08F4B4
:101740008FEF08950E94B50B0C94630B0E94550B0C
:1017500038F00E945C0B20F0952311F00C944C0B98
:101760000C94520B11240C94970B0E94740B70F381
:10177000959FC1F3950F50E0551F629FF001729F36
:10178000BB27F00DB11D639FAA27F00DB11DAA1F45
:10179000649F6627B00DA11D661F829F2227B00D92
:1017A000A11D621F739FB00DA11D621F839FA00D1D
:1017B000611D221F749F3327A00D611D231F849F6D
:1017C000600D211D822F762F6A2F11249F575040C4
:1017D0009AF0F1F088234AF0EE0FFF1FBB1F661F3F
:1017E000771F881F91505040A9F79E3F510580F008
:1017F0000C944C0B0C94970B5F3FE4F3983ED4F39E
:10180000869577956795B795F795E7959F5FC1F7AB
:10181000FE2B880F911D9695879597F908950E9444
:10182000280B880B990B0895A1E21A2EAA1BBB1B4B
:10183000FD010DC0AA1FBB1FEE1FFF1FA217B3079C
:10184000E407F50720F0A21BB30BE40BF50B661FB2
:10185000771F881F991F1A9469F760957095809576
:1018600090959B01AC01BD01CF010895052E97FB1A
:101870001EF400940E944D0C57FD07D00E94140CDA
:1018800007FC03D04EF40C944D0C509540953095C8
:1018900021953F4F4F4F5F4F0895909580957095DC
:1018A00061957F4F8F4F9F4F0895EE0FFF1F05905B
:1018B000F491E02D099481E090E0F8940C94600C90
:0418C000F894FFCFCA
:1018C400FFFFFFFF00E100000000000000C1808175
:1018D4000000000000000078029F0399028E02DFDE
:1018E400029D02BB026E616E00696E66006F7666D1
:0418F400000D0A00D9
:00000001FF
