:100000000C945D000C9485000C9485000C94850084
:100010000C9485000C9485000C9485000C9485004C
:100020000C9485000C9485000C9485000C9485003C
:100030000C9485000C9485000C9485000C9485002C
:100040000C9486030C9485000C9454030C942E039A
:100050000C9485000C9485000C9485000C9485000C
:100060000C9485000C94850000000008000201003B
:100070000003040700000000000000000000000072
:10008000250028002B0000000000240027002A0083
:10009000040404040404040402020202020203032E
:1000A0000303030301020408102040800102040836
:1000B0001020010204081020D00311241FBECFEF2E
:1000C000D4E0DEBFCDBF22E0A6E3B1E001C01D92C7
:1000D000AC32B207E1F711E0A0E0B1E0E8EAFCE001
:1000E00002C005900D92A633B107D9F710E0CDE517
:1000F000D0E004C02197FE010E944706CC35D1070D
:10010000C9F70E940F040C9452060C94000090E072
:10011000FC01EC55FF4F2491FC01E057FF4F849107
:10012000882399F090E0880F991FFC01EA57FF4F50
:10013000A591B491FC01E458FF4F859194918FB73C
:10014000F894EC91E22BEC938FBF0895CF92DF925D
:10015000EF92FF920F931F93CF93DF936C017A017D
:100160008B01C0E0D0E0CE15DF0589F0D8016D919C
:100170008D01D601ED91FC910190F081E02DC60139
:100180000995892B11F47E0102C02196ECCFC7019D
:10019000DF91CF911F910F91FF90EF90DF90CF9063
:1001A0000895FC01918D828D981761F0828DDF0199
:1001B000A80FB11D5D968C91928D9F5F9F73928F5A
:1001C00090E008958FEF9FEF0895FC01918D828D4F
:1001D000981731F0828DE80FF11D858D90E008951C
:1001E0008FEF9FEF0895FC01918D228D892F90E074
:1001F000805C9F4F821B91098F739927089587E434
:1002000091E00E94F30021E0892B09F420E0822F85
:100210000895FC01848DDF01A80FB11DA35ABF4FC3
:100220002C91848D90E001968F739927848FA689F5
:10023000B7892C93A089B1898C9180648C93938D1C
:10024000848D981306C00288F389E02D80818F7D0C
:1002500080830895EF92FF920F931F93CF93DF93C4
:10026000EC0181E0888F9B8D8C8D981305C0E88907
:10027000F989808185FD24C0F62E0B8D10E00F5F7B
:100280001F4F0F731127E02E8C8DE8120CC00FB694
:1002900007FCFACFE889F989808185FFF5CFCE0187
:1002A0000E940901F1CF8B8DFE01E80FF11DE35A89
:1002B000FF4FF0820B8FEA89FB898081806207C043
:1002C000EE89FF896083E889F98980818064808371
:1002D00081E090E0DF91CF911F910F91FF90EF901F
:1002E0000895CF93DF93EC01888D8823C9F0EA89C4
:1002F000FB89808185FD05C0A889B9898C9186FD1F
:100300000FC00FB607FCF5CF808185FFF2CFA8891B
:10031000B9898C9185FFEDCFCE010E940901E7CF0D
:10032000DF91CF91089580E090E0892B29F00E9421
:10033000FF0081110C940000089590E0FC01E85941
:10034000FF4F3491FC01EC55FF4F2491FC01E05725
:10035000FF4FE491EE2309F43BC0332339F13330EE
:1003600091F038F43130A9F0323001F584B58F7D49
:1003700012C0373091F03830A1F03430B9F48091A8
:1003800080008F7D03C0809180008F7780938000F4
:100390000DC084B58F7784BD09C08091B0008F7780
:1003A00003C08091B0008F7D8093B000F0E0EE0F2D
:1003B000FF1FE458FF4FA591B4918FB7F894EC91CB
:1003C000611103C020952E2301C02E2B2C938FBFCB
:1003D00008953FB7F89480913B0190913C01A09122
:1003E0003D01B0913E0126B5A89B05C02F3F19F0F5
:1003F0000196A11DB11D3FBFBA2FA92F982F8827A5
:10040000820F911DA11DB11DBC01CD0142E0660FFF
:10041000771F881F991F4A95D1F708958F929F9251
:10042000AF92BF92CF92DF92EF92FF926B017C016D
:100430000E94E9014B015C01C114D104E104F10403
:10044000F1F00E94E901DC01CB0188199909AA09A0
:10045000BB09883E9340A105B10570F321E0C21AA3
:10046000D108E108F10888EE880E83E0981EA11CEF
:10047000B11CC114D104E104F10419F7DDCFFF90E0
:10048000EF90DF90CF90BF90AF909F908F900895A6
:100490002FB7F8946091370170913801809139013C
:1004A00090913A012FBF08958F929F92AF92BF9281
:1004B000CF92DF92EF92FF926B017C010E94480283
:1004C0004B015C01C60ED71EE81EF91E0E944802B1
:1004D000681579058A059B0528F0C616D706E80633
:1004E000F906A0F7FF90EF90DF90CF90BF90AF900C
:1004F0009F908F900895CF93C82F0E948700EC2F74
:10050000F0E0E859FF4FE491E33019F150F4E130A5
:10051000D1F0E230E1F584B5806284BD84E688BD27
:100520003BC0E73011F1E83049F1E43081F58091CA
:10053000800080628093800084E690E090938B003E
:1005400080938A0029C084B5806884BD84E687BD15
:1005500023C08091800080688093800084E690E0D2
:10056000909389008093880017C08091B0008068C4
:100570008093B00084E68093B3000EC08091B000F9
:1005800080628093B00084E68093B40005C060E090
:100590008C2FCF910C949D01CF9108950E944D0610
:1005A0006115710579F0FB0101900020E9F73197A1
:1005B000AF01461B570BDC01ED91FC910280F381EA
:1005C000E02D099480E090E008954F925F926F9241
:1005D0007F92EF92FF920F931F93CF93DF93CDB74C
:1005E000DEB7A1970FB6F894DEBF0FBECDBF7C017A
:1005F000FA01CB0119A2223008F42AE08E010F5D26
:100600001F4F422E512C612C712CBF01A30192016E
:100610000E942506F901CA01015011096A3014F43B
:10062000605D01C0695CD8016C93232B242B252BC2
:1006300061F7B801C7010E94D002A1960FB6F894E5
:10064000DEBF0FBECDBFDF91CF911F910F91FF9005
:10065000EF907F906F905F904F9008951F920F9250
:100660000FB60F9211242F933F934F935F936F9385
:100670007F938F939F93AF93BF93EF93FF9387E401
:1006800091E00E940901FF91EF91BF91AF919F917D
:100690008F917F916F915F914F913F912F910F902B
:1006A0000FBE0F901F9018951F920F920FB60F92CA
:1006B00011242F938F939F93EF93FF93E091570112
:1006C000F09158018081E0915D01F0915E0182FD21
:1006D00012C09081809160018F5F8F7320916101C2
:1006E000821751F0E0916001F0E0E95BFE4F958FD9
:1006F0008093600101C08081FF91EF919F918F9164
:100700002F910F900FBE0F901F9018951F920F9270
:100710000FB60F9211242F933F938F939F93AF9314
:10072000BF938091370190913801A0913901B09128
:100730003A013091360123E0230F2D3720F4019642
:10074000A11DB11D05C026E8230F0296A11DB11DF4
:10075000209336018093370190933801A09339019B
:10076000B0933A0180913B0190913C01A0913D01F1
:10077000B0913E010196A11DB11D80933B01909364
:100780003C01A0933D01B0933E01BF91AF919F9179
:100790008F913F912F910F900FBE0F901F90189542
:1007A000E7E4F1E01382128288EE93E0A0E0B0E08B
:1007B00084839583A683B78384E091E091838083CB
:1007C00085EC90E09587848784EC90E09787868716
:1007D00080EC90E0918B808B81EC90E0938B828B0E
:1007E00082EC90E0958B848B86EC90E0978B868BE7
:1007F000118E128E138E148EE4EEF1E016821782A3
:10080000108611861286138614861586168617861C
:10081000108A118A128A138A148A158A0895789484
:1008200084B5826084BD84B5816084BD85B58260F5
:1008300085BD85B5816085BD80916E0081608093A6
:100840006E0010928100809181008260809381000F
:10085000809181008160809381008091800081601F
:10086000809380008091B10084608093B10080917A
:10087000B00081608093B00080917A0084608093A2
:100880007A0080917A00826080937A0080917A0069
:10089000816080937A0080917A00806880937A00EA
:1008A0001092C100109228021092290210922A027E
:1008B00010922B021092E6011092E7011092E801CB
:1008C0001092E90168EB7BE080E090E00E94540226
:1008D00087E491E09093270280932602E0915701EC
:1008E000F091580182E08083E0915301F09154012E
:1008F0001082E0915501F091560180E180831092C1
:100900005F01E0915B01F0915C0186E08083E09102
:100910005901F0915A01808180618083E0915901F1
:10092000F0915A01808188608083E0915901F091B3
:100930005A01808180688083E0915901F0915A01C9
:1009400080818F7D80830E9448026093E6017093CE
:10095000E7018093E8019093E90160E171E0809103
:100960002602909127020E94D0026AE070E080E0A7
:1009700090E00E94540281E08093FA018CE00E9492
:1009800087008DE00E9487008AE00E9487008BE04C
:100990000E94870084E00E94870061E084E00E945A
:1009A0009D0164EF71E080E090E00E940E0260E043
:1009B00084E00E949D0164EF71E080E090E00E947D
:1009C0000E028BE00E947B028AE00E947B0284EF91
:1009D000882E99249394A12CB12C0E944802672B55
:1009E000682B692B41F40E94480262307105810531
:1009F000910508F40BC10E94480260934301709373
:100A000044018093450190934601C0903F01D090EE
:100A10004001E0904101F09042016C157D058E058A
:100A20009F0540F460933F01709340018093410122
:100A300090934201C0903F01D0904001E09041016D
:100A4000F09042019B01AC012C193D094E095F0950
:100A500069017A013AEFC316D104E104F10408F404
:100A6000D5C060933F017093400180934101909302
:100A700042018092F2019092F301A092F401B092AF
:100A8000F5011092F6011092F7011092F801109200
:100A9000F9018091EA019091EB01A091EC01B091F4
:100AA000ED018093EE019093EF01A093F001B093DC
:100AB000F1010E9448026093EA017093EB01809378
:100AC000EC019093ED010E9448026093E60170935F
:100AD000E7018093E8019093E9010E9448026B01CD
:100AE0007C0162E271E080912602909127020E94CF
:100AF000D0022AE041E050E060E070E08091260200
:100B0000909127020E94E50269E271E0809126023D
:100B1000909127020E94D0022AE0B701A60180919D
:100B20002602909127020E94E5026BE271E080911B
:100B30002602909127020E94D0028091EA019091B2
:100B4000EB01A091EC01B091ED01B701A601481BAA
:100B5000590B6A0B7B0B2AE08091260290912702A9
:100B60000E94E5026BE271E08091260290912702DB
:100B70000E94D0024091EA015091EB016091EC019A
:100B80007091ED018091EE019091EF01A091F00143
:100B9000B091F101481B590B6A0B7B0B2AE0809145
:100BA0002602909127020E94E5026DE271E0809199
:100BB0002602909127020E94D0020E944802AB01B7
:100BC000BC012AE080912602909127020E94E50252
:100BD000E0902602F09027026FE271E0C7010E94C8
:100BE000D0026FE171E0C7010E94D00265E070E0C1
:100BF00080E090E00E9454020E9448026093EA0163
:100C00007093EB018093EC019093ED0161E08CE037
:100C10000E949D0161E08DE00E949D0168EB7BE0F8
:100C200080E090E00E940E0260E08CE00E949D0156
:100C300060E08DE00E949D0168EB7BE080E090E049
:100C40000E940E020E949301C8CEA1E21A2EAA1B96
:100C5000BB1BFD010DC0AA1FBB1FEE1FFF1FA2176C
:100C6000B307E407F50720F0A21BB30BE40BF50B69
:100C7000661F771F881F991F1A9469F760957095F2
:100C8000809590959B01AC01BD01CF010895EE0FB9
:100C9000FF1F0590F491E02D099481E090E0F89415
:080CA0000C945206F894FFCFFA
:100CA800000000002A01A600F300D100E500710150
:100CB800564D4450565F317C315F564D4450560D69
:100CC8000A00564D4450455F003A323A007C005FB6
:060CD800564D445045009A
:103800000C94341C0C94511C0C94511C0C94511CA1
:103810000C94511C0C94511C0C94511C0C94511C74
:103820000C94511C0C94511C0C94511C0C94511C64
:103830000C94511C0C94511C0C94511C0C94511C54
:103840000C94511C0C94511C0C94511C0C94511C44
:103850000C94511C0C94511C0C94511C0C94511C34
:103860000C94511C0C94511C11241FBECFEFD4E0BA
:10387000DEBFCDBF11E0A0E0B1E0E4EAFFE302C0AB
:1038800005900D92A230B107D9F712E0A2E0B1E0A5
:1038900001C01D92AD30B107E1F70E94361D0C94B6
:1038A000D01F0C94001C982F9595959595959595FE
:1038B000905D8F708A307CF0282F295A8091C0004B
:1038C00085FFFCCF9093C6008091C00085FFFCCFA0
:1038D0002093C6000895282F205DF0CF982F809167
:1038E000C00085FFFCCF9093C6000895EF92FF9231
:1038F0000F931F93EE24FF2487018091C00087FD62
:1039000017C00894E11CF11C011D111D81E4E8168B
:1039100082E4F8068FE0080780E0180770F3E09172
:103920000401F091050109958091C00087FFE9CF5E
:103930008091C6001F910F91FF90EF9008950E9413
:10394000761C982F8091C00085FFFCCF9093C60015
:1039500091362CF490330CF09053892F089597559D
:10396000892F08951F930E949F1C182F0E949F1C4F
:103970001295107F810F1F910895882351F0982F81
:1039800091508091C00087FFFCCF8091C6009923A1
:10399000B9F708951F93182F0E94761C803249F0C2
:1039A000809103018F5F809303018530C1F01F91E7
:1039B00008958091C00085FFFCCF84E18093C6000C
:1039C0008091C00085FFFCCF1093C6008091C0009D
:1039D00085FFFCCF80E18093C6001F910895E091A0
:1039E0000401F091050109951F9108950E94761C2C
:1039F000803241F0809103018F5F80930301853015
:103A000081F008958091C00085FFFCCF84E1809310
:103A1000C6008091C00085FFFCCF80E18093C60086
:103A20000895E0910401F09105010995089510921F
:103A30000A028823D1F090E040E951E02D9A28EE67
:103A400033E0FA013197F1F721503040D1F72D984A
:103A500028EE33E0FA013197F1F721503040D1F7E9
:103A60009F5F981758F380930A0208953F924F92F0
:103A70005F926F927F928F929F92AF92BF92CF92FE
:103A8000DF92EF92FF920F931F93CF93DF9300008B
:103A900083E38093C4001092C50088E18093C10045
:103AA00086E08093C2005098589A259A81E00E943F
:103AB000171D44E1F42E3EE1E32E24E9D22E96E0D8
:103AC000C92E80E1B82EAA24A39401E4902E16E515
:103AD000812EB2E57B2EA0E26A2EF9E45F2EE3E5AB
:103AE0004E2E70E5372E0E94761C8033B1F1813363
:103AF00009F441C0803409F479C0813409F48CC0E0
:103B0000823471F1853409F47BC0803531F182351E
:103B100021F1813511F1853509F48DC0863509F41F
:103B20009DC0843609F4AEC0843709F41BC18537C3
:103B300009F485C1863709F47AC0809103018F5F4B
:103B400080930301853079F6E0910401F09105013D
:103B500009950E94761C803351F60E94F61CC3CF53
:103B600093E18091C00087FFFCCF8091C60099232C
:103B7000A1F39150F6CF0E94761C8032F1F680912D
:103B8000C00085FFFCCFF092C6008091C00085FF89
:103B9000FCCF9092C6008091C00085FFFCCF809240
:103BA000C6008091C00085FFFCCF7092C600809156
:103BB000C00085FFFCCF6092C6008091C00085FFE9
:103BC000FCCF5092C6008091C00085FFFCCF409290
:103BD000C6008091C00085FFFCCF3092C600809166
:103BE000C00085FFFCCFB092C6007DCF0E94761C3E
:103BF000863808F4B2CF0E94761C0E94F61C73CF60
:103C000094E08091C00087FFFCCF8091C60099238B
:103C100009F4A3CF9150F5CF0E94761C8038D1F0E3
:103C2000813861F1823809F499C0883979F080E0EF
:103C30000E94CA1C58CF0E94761C809306010E94E5
:103C4000761C809307010E94F61C4DCF83E00E94F2
:103C5000CA1C49CF82E00E94CA1C45CF0E94761C34
:103C6000803309F486C192E08091C00087FFFCCFC9
:103C70008091C6009923D9F29150F6CF81E00E943D
:103C8000CA1C31CF0E94761C809309020E94761CC8
:103C90008093080280910C028E7F80930C020E9418
:103CA000761C853429F480910C02816080930C028B
:103CB0008091080290910902892B89F000E010E0C0
:103CC0000E94761CF801E85FFE4F80830F5F1F4F54
:103CD00080910802909109020817190788F30E9441
:103CE000761C803209F029CF80910C0280FFD1C070
:103CF0004091060150910701440F551F5093070151
:103D000040930601A0910802B09109021097C9F0F2
:103D1000E8E0F1E09A01BD016E0F7F1FF999FECF37
:103D200032BD21BD819180BDFA9AF99A2F5F3F4F34
:103D3000E617F70799F74A0F5B1F50930701409367
:103D400006018091C00085FFFCCFF092C6008091F3
:103D5000C00085FFFCCFB092C600C5CE80E10E94B6
:103D6000CA1CC1CE0E94761C809309020E94761C58
:103D7000809308028091060190910701880F991F96
:103D800090930701809306010E94761C853409F404
:103D90007AC080910C028E7F80930C020E94761C68
:103DA000803209F0A0CE8091C00085FFFCCFF09258
:103DB000C600A0910802B09109021097B9F1809154
:103DC0000C02182F1170082F0270E0910601F0917B
:103DD00007019F012F5F3F4FB90140E050E01123E1
:103DE000B1F4002339F494918091C00085FFFCCF99
:103DF0009093C6004F5F5F4FCB010196F9014A17C0
:103E00005B0780F4BC012F5F3F4F112351F3F999F9
:103E1000FECFF2BDE1BDF89A90B58091C00085FF5C
:103E2000FCCFE6CF70930701609306018091C0003C
:103E300085FDD9CE8091C00085FFF8CFD4CE0E94F9
:103E4000761C803209F079CE8091C00085FFFCCFCE
:103E5000F092C6008091C00085FFFCCFE092C600C2
:103E60008091C00085FFFCCFD092C6008091C00039
:103E700085FFFCCFC092C6008091C00085FFFCCFBB
:103E8000B092C60030CE80910C02816080930C020B
:103E900085CF809107018823880F880B8A21809322
:103EA0000B028091060190910701880F991F909352
:103EB0000701809306018091080280FF09C080916C
:103EC00008029091090201969093090280930802DA
:103ED000F894F999FECF1127E0910601F0910701BE
:103EE000C8E0D1E08091080290910902103091F46D
:103EF0000091570001700130D9F303E0009357009F
:103F0000E8950091570001700130D9F301E1009369
:103F10005700E89509901990009157000170013001
:103F2000D9F301E000935700E8951395103498F009
:103F300011270091570001700130D9F305E000937B
:103F40005700E8950091570001700130D9F301E165
:103F500000935700E8953296029709F0C7CF1030CA
:103F600011F00296E5CF11248091C00085FFE9CEC3
:103F7000ECCE0E94761C0E94761C182F0E94761CA4
:103F8000112351F0113021F086E00E94CA1CABCD04
:103F900084E90E94CA1CA7CD8EE10E94CA1CA3CD51
:043FA000F894FFCFC3
:023FA40080009B
:0400000300003800C1
:00000001FF